{
  "_format": "hh-sol-artifact-1",
  "contractName": "ActionRegistory",
  "sourceName": "contracts/main/ActionRegistory.sol",
  "abi": [
    {
      "inputs": [
        {
          "internalType": "address",
          "name": "owner",
          "type": "address"
        },
        {
          "internalType": "address",
          "name": "_actionStandardRegistory",
          "type": "address"
        }
      ],
      "stateMutability": "nonpayable",
      "type": "constructor"
    },
    {
      "anonymous": false,
      "inputs": [
        {
          "indexed": true,
          "internalType": "address",
          "name": "",
          "type": "address"
        },
        {
          "indexed": false,
          "internalType": "uint256[]",
          "name": "",
          "type": "uint256[]"
        }
      ],
      "name": "Approve",
      "type": "event"
    },
    {
      "anonymous": false,
      "inputs": [
        {
          "indexed": true,
          "internalType": "address",
          "name": "",
          "type": "address"
        },
        {
          "indexed": false,
          "internalType": "uint256",
          "name": "",
          "type": "uint256"
        }
      ],
      "name": "CreateAction",
      "type": "event"
    },
    {
      "anonymous": false,
      "inputs": [
        {
          "indexed": true,
          "internalType": "address",
          "name": "previousOwner",
          "type": "address"
        },
        {
          "indexed": true,
          "internalType": "address",
          "name": "newOwner",
          "type": "address"
        }
      ],
      "name": "OwnershipTransferred",
      "type": "event"
    },
    {
      "inputs": [],
      "name": "actionCounter",
      "outputs": [
        {
          "internalType": "uint256",
          "name": "",
          "type": "uint256"
        }
      ],
      "stateMutability": "view",
      "type": "function"
    },
    {
      "inputs": [],
      "name": "actionStandardRegistory",
      "outputs": [
        {
          "internalType": "address",
          "name": "",
          "type": "address"
        }
      ],
      "stateMutability": "view",
      "type": "function"
    },
    {
      "inputs": [
        {
          "internalType": "address",
          "name": "owner",
          "type": "address"
        },
        {
          "internalType": "uint256",
          "name": "actionId",
          "type": "uint256"
        }
      ],
      "name": "allowance",
      "outputs": [
        {
          "internalType": "bool",
          "name": "",
          "type": "bool"
        }
      ],
      "stateMutability": "view",
      "type": "function"
    },
    {
      "inputs": [
        {
          "internalType": "uint256[]",
          "name": "actionIds",
          "type": "uint256[]"
        }
      ],
      "name": "approve",
      "outputs": [],
      "stateMutability": "nonpayable",
      "type": "function"
    },
    {
      "inputs": [
        {
          "internalType": "uint256",
          "name": "id",
          "type": "uint256"
        }
      ],
      "name": "getActionById",
      "outputs": [
        {
          "components": [
            {
              "internalType": "address",
              "name": "account",
              "type": "address"
            },
            {
              "internalType": "uint256",
              "name": "standardId",
              "type": "uint256"
            },
            {
              "internalType": "string",
              "name": "name",
              "type": "string"
            },
            {
              "internalType": "string",
              "name": "description",
              "type": "string"
            },
            {
              "internalType": "enum ActionRegistory.ActionStatus",
              "name": "status",
              "type": "uint8"
            }
          ],
          "internalType": "struct ActionRegistory.Action",
          "name": "",
          "type": "tuple"
        }
      ],
      "stateMutability": "view",
      "type": "function"
    },
    {
      "inputs": [],
      "name": "owner",
      "outputs": [
        {
          "internalType": "address",
          "name": "",
          "type": "address"
        }
      ],
      "stateMutability": "view",
      "type": "function"
    },
    {
      "inputs": [
        {
          "components": [
            {
              "internalType": "address",
              "name": "account",
              "type": "address"
            },
            {
              "internalType": "uint256",
              "name": "standardId",
              "type": "uint256"
            },
            {
              "internalType": "string",
              "name": "name",
              "type": "string"
            },
            {
              "internalType": "string",
              "name": "description",
              "type": "string"
            },
            {
              "internalType": "enum ActionRegistory.ActionStatus",
              "name": "status",
              "type": "uint8"
            }
          ],
          "internalType": "struct ActionRegistory.Action",
          "name": "action",
          "type": "tuple"
        }
      ],
      "name": "registerAction",
      "outputs": [],
      "stateMutability": "nonpayable",
      "type": "function"
    },
    {
      "inputs": [],
      "name": "renounceOwnership",
      "outputs": [],
      "stateMutability": "nonpayable",
      "type": "function"
    },
    {
      "inputs": [
        {
          "internalType": "address",
          "name": "newOwner",
          "type": "address"
        }
      ],
      "name": "transferOwnership",
      "outputs": [],
      "stateMutability": "nonpayable",
      "type": "function"
    },
    {
      "inputs": [
        {
          "internalType": "uint256",
          "name": "id",
          "type": "uint256"
        },
        {
          "internalType": "enum ActionRegistory.ActionStatus",
          "name": "status",
          "type": "uint8"
        }
      ],
      "name": "updateStatus",
      "outputs": [],
      "stateMutability": "nonpayable",
      "type": "function"
    }
  ],
  "bytecode": "0x60806040523480156200001157600080fd5b506040516200226538038062002265833981810160405281019062000037919062000337565b620000576200004b620000b160201b60201c565b620000b960201b60201c565b62000068826200017d60201b60201c565b80600260006101000a81548173ffffffffffffffffffffffffffffffffffffffff021916908373ffffffffffffffffffffffffffffffffffffffff160217905550505062000499565b600033905090565b60008060009054906101000a900473ffffffffffffffffffffffffffffffffffffffff169050816000806101000a81548173ffffffffffffffffffffffffffffffffffffffff021916908373ffffffffffffffffffffffffffffffffffffffff1602179055508173ffffffffffffffffffffffffffffffffffffffff168173ffffffffffffffffffffffffffffffffffffffff167f8be0079c531659141344cd1fd0a4f28419497f9722a3daafe3b4186f6b6457e060405160405180910390a35050565b6200018d6200021360201b60201c565b600073ffffffffffffffffffffffffffffffffffffffff168173ffffffffffffffffffffffffffffffffffffffff1603620001ff576040517f08c379a0000000000000000000000000000000000000000000000000000000008152600401620001f69062000405565b60405180910390fd5b6200021081620000b960201b60201c565b50565b62000223620000b160201b60201c565b73ffffffffffffffffffffffffffffffffffffffff1662000249620002a460201b60201c565b73ffffffffffffffffffffffffffffffffffffffff1614620002a2576040517f08c379a0000000000000000000000000000000000000000000000000000000008152600401620002999062000477565b60405180910390fd5b565b60008060009054906101000a900473ffffffffffffffffffffffffffffffffffffffff16905090565b600080fd5b600073ffffffffffffffffffffffffffffffffffffffff82169050919050565b6000620002ff82620002d2565b9050919050565b6200031181620002f2565b81146200031d57600080fd5b50565b600081519050620003318162000306565b92915050565b60008060408385031215620003515762000350620002cd565b5b6000620003618582860162000320565b9250506020620003748582860162000320565b9150509250929050565b600082825260208201905092915050565b7f4f776e61626c653a206e6577206f776e657220697320746865207a65726f206160008201527f6464726573730000000000000000000000000000000000000000000000000000602082015250565b6000620003ed6026836200037e565b9150620003fa826200038f565b604082019050919050565b600060208201905081810360008301526200042081620003de565b9050919050565b7f4f776e61626c653a2063616c6c6572206973206e6f7420746865206f776e6572600082015250565b60006200045f6020836200037e565b91506200046c8262000427565b602082019050919050565b60006020820190508181036000830152620004928162000450565b9050919050565b611dbc80620004a96000396000f3fe608060405234801561001057600080fd5b506004361061009e5760003560e01c8063ab84b2e711610066578063ab84b2e714610135578063b8b6968314610151578063ddc6a1711461016d578063f2fde38b1461019d578063fdbd98b0146101b95761009e565b80630db875ce146100a35780633a1b3d31146100d3578063715018a6146100ef5780638da5cb5b146100f9578063a2956a5514610117575b600080fd5b6100bd60048036038101906100b89190610e11565b6101d7565b6040516100ca9190611012565b60405180910390f35b6100ed60048036038101906100e89190611059565b6103c3565b005b6100f7610561565b005b610101610575565b60405161010e91906110a8565b60405180910390f35b61011f61059e565b60405161012c91906110a8565b60405180910390f35b61014f600480360381019061014a91906112f2565b6105c4565b005b61016b6004803603810190610166919061139b565b610a30565b005b610187600480360381019061018291906113e8565b610b28565b6040516101949190611443565b60405180910390f35b6101b760048036038101906101b2919061145e565b610b90565b005b6101c1610c13565b6040516101ce919061149a565b60405180910390f35b6101df610d70565b600360008381526020019081526020016000206040518060a00160405290816000820160009054906101000a900473ffffffffffffffffffffffffffffffffffffffff1673ffffffffffffffffffffffffffffffffffffffff1673ffffffffffffffffffffffffffffffffffffffff1681526020016001820154815260200160028201805461026d906114e4565b80601f0160208091040260200160405190810160405280929190818152602001828054610299906114e4565b80156102e65780601f106102bb576101008083540402835291602001916102e6565b820191906000526020600020905b8154815290600101906020018083116102c957829003601f168201915b505050505081526020016003820180546102ff906114e4565b80601f016020809104026020016040519081016040528092919081815260200182805461032b906114e4565b80156103785780601f1061034d57610100808354040283529160200191610378565b820191906000526020600020905b81548152906001019060200180831161035b57829003601f168201915b505050505081526020016004820160009054906101000a900460ff1660038111156103a6576103a5610f1e565b5b60038111156103b8576103b7610f1e565b5b815250509050919050565b6103cb610c19565b600073ffffffffffffffffffffffffffffffffffffffff166003600084815260200190815260200160002060000160009054906101000a900473ffffffffffffffffffffffffffffffffffffffff1673ffffffffffffffffffffffffffffffffffffffff1614806104e057506104de60036000848152602001908152602001600020600201805461045b906114e4565b80601f0160208091040260200160405190810160405280929190818152602001828054610487906114e4565b80156104d45780601f106104a9576101008083540402835291602001916104d4565b820191906000526020600020905b8154815290600101906020018083116104b757829003601f168201915b5050505050610c97565b155b61051f576040517f08c379a000000000000000000000000000000000000000000000000000000000815260040161051690611572565b60405180910390fd5b806003600084815260200190815260200160002060040160006101000a81548160ff0219169083600381111561055857610557610f1e565b5b02179055505050565b610569610c19565b6105736000610ca4565b565b60008060009054906101000a900473ffffffffffffffffffffffffffffffffffffffff16905090565b600260009054906101000a900473ffffffffffffffffffffffffffffffffffffffff1681565b806105d28160400151610c97565b15801561060e57503373ffffffffffffffffffffffffffffffffffffffff16816000015173ffffffffffffffffffffffffffffffffffffffff16145b801561064257506000600381111561062957610628610f1e565b5b816080015160038111156106405761063f610f1e565b5b145b610681576040517f08c379a0000000000000000000000000000000000000000000000000000000008152600401610678906115de565b60405180910390fd5b60008160200151146107b1576000600260009054906101000a900473ffffffffffffffffffffffffffffffffffffffff16905060008173ffffffffffffffffffffffffffffffffffffffff166331c9e60b84602001516040518263ffffffff1660e01b81526004016106f3919061149a565b600060405180830381865afa158015610710573d6000803e3d6000fd5b505050506040513d6000823e3d601f19601f820116820180604052508101906107399190611758565b9050600073ffffffffffffffffffffffffffffffffffffffff16816000015173ffffffffffffffffffffffffffffffffffffffff16036107ae576040517f08c379a00000000000000000000000000000000000000000000000000000000081526004016107a590611813565b60405180910390fd5b50505b60006001549050806001019050600073ffffffffffffffffffffffffffffffffffffffff166003600083815260200190815260200160002060000160009054906101000a900473ffffffffffffffffffffffffffffffffffffffff1673ffffffffffffffffffffffffffffffffffffffff161480156108d357506108d260036000838152602001908152602001600020600201805461084f906114e4565b80601f016020809104026020016040519081016040528092919081815260200182805461087b906114e4565b80156108c85780601f1061089d576101008083540402835291602001916108c8565b820191906000526020600020905b8154815290600101906020018083116108ab57829003601f168201915b5050505050610c97565b5b610912576040517f08c379a0000000000000000000000000000000000000000000000000000000008152600401610909906118a5565b60405180910390fd5b80600181905550826003600083815260200190815260200160002060008201518160000160006101000a81548173ffffffffffffffffffffffffffffffffffffffff021916908373ffffffffffffffffffffffffffffffffffffffff1602179055506020820151816001015560408201518160020190816109939190611a71565b5060608201518160030190816109a99190611a71565b5060808201518160040160006101000a81548160ff021916908360038111156109d5576109d4610f1e565b5b02179055509050503373ffffffffffffffffffffffffffffffffffffffff167ffb0850d699bf3475cd1dcb3c3a703ff72c89be59fce88a16203c541d5a15859b82604051610a23919061149a565b60405180910390a2505050565b60005b82829050811015610ad3576001600460003373ffffffffffffffffffffffffffffffffffffffff1673ffffffffffffffffffffffffffffffffffffffff1681526020019081526020016000206000858585818110610a9457610a93611b43565b5b90506020020135815260200190815260200160002060006101000a81548160ff0219169083151502179055508080610acb90611ba1565b915050610a33565b503373ffffffffffffffffffffffffffffffffffffffff167fd023338096c115b98071f97a748ea1fcf0c0e8fc3bda553bdf3abcec31343dca8383604051610b1c929190611c64565b60405180910390a25050565b6000600460008473ffffffffffffffffffffffffffffffffffffffff1673ffffffffffffffffffffffffffffffffffffffff168152602001908152602001600020600083815260200190815260200160002060009054906101000a900460ff16905092915050565b610b98610c19565b600073ffffffffffffffffffffffffffffffffffffffff168173ffffffffffffffffffffffffffffffffffffffff1603610c07576040517f08c379a0000000000000000000000000000000000000000000000000000000008152600401610bfe90611cfa565b60405180910390fd5b610c1081610ca4565b50565b60015481565b610c21610d68565b73ffffffffffffffffffffffffffffffffffffffff16610c3f610575565b73ffffffffffffffffffffffffffffffffffffffff1614610c95576040517f08c379a0000000000000000000000000000000000000000000000000000000008152600401610c8c90611d66565b60405180910390fd5b565b6000808251149050919050565b60008060009054906101000a900473ffffffffffffffffffffffffffffffffffffffff169050816000806101000a81548173ffffffffffffffffffffffffffffffffffffffff021916908373ffffffffffffffffffffffffffffffffffffffff1602179055508173ffffffffffffffffffffffffffffffffffffffff168173ffffffffffffffffffffffffffffffffffffffff167f8be0079c531659141344cd1fd0a4f28419497f9722a3daafe3b4186f6b6457e060405160405180910390a35050565b600033905090565b6040518060a00160405280600073ffffffffffffffffffffffffffffffffffffffff16815260200160008152602001606081526020016060815260200160006003811115610dc157610dc0610f1e565b5b81525090565b6000604051905090565b600080fd5b600080fd5b6000819050919050565b610dee81610ddb565b8114610df957600080fd5b50565b600081359050610e0b81610de5565b92915050565b600060208284031215610e2757610e26610dd1565b5b6000610e3584828501610dfc565b91505092915050565b600073ffffffffffffffffffffffffffffffffffffffff82169050919050565b6000610e6982610e3e565b9050919050565b610e7981610e5e565b82525050565b610e8881610ddb565b82525050565b600081519050919050565b600082825260208201905092915050565b60005b83811015610ec8578082015181840152602081019050610ead565b60008484015250505050565b6000601f19601f8301169050919050565b6000610ef082610e8e565b610efa8185610e99565b9350610f0a818560208601610eaa565b610f1381610ed4565b840191505092915050565b7f4e487b7100000000000000000000000000000000000000000000000000000000600052602160045260246000fd5b60048110610f5e57610f5d610f1e565b5b50565b6000819050610f6f82610f4d565b919050565b6000610f7f82610f61565b9050919050565b610f8f81610f74565b82525050565b600060a083016000830151610fad6000860182610e70565b506020830151610fc06020860182610e7f565b5060408301518482036040860152610fd88282610ee5565b91505060608301518482036060860152610ff28282610ee5565b91505060808301516110076080860182610f86565b508091505092915050565b6000602082019050818103600083015261102c8184610f95565b905092915050565b6004811061104157600080fd5b50565b60008135905061105381611034565b92915050565b600080604083850312156110705761106f610dd1565b5b600061107e85828601610dfc565b925050602061108f85828601611044565b9150509250929050565b6110a281610e5e565b82525050565b60006020820190506110bd6000830184611099565b92915050565b600080fd5b7f4e487b7100000000000000000000000000000000000000000000000000000000600052604160045260246000fd5b61110082610ed4565b810181811067ffffffffffffffff8211171561111f5761111e6110c8565b5b80604052505050565b6000611132610dc7565b905061113e82826110f7565b919050565b600080fd5b61115181610e5e565b811461115c57600080fd5b50565b60008135905061116e81611148565b92915050565b600080fd5b600080fd5b600067ffffffffffffffff821115611199576111986110c8565b5b6111a282610ed4565b9050602081019050919050565b82818337600083830152505050565b60006111d16111cc8461117e565b611128565b9050828152602081018484840111156111ed576111ec611179565b5b6111f88482856111af565b509392505050565b600082601f83011261121557611214611174565b5b81356112258482602086016111be565b91505092915050565b600060a08284031215611244576112436110c3565b5b61124e60a0611128565b9050600061125e8482850161115f565b600083015250602061127284828501610dfc565b602083015250604082013567ffffffffffffffff81111561129657611295611143565b5b6112a284828501611200565b604083015250606082013567ffffffffffffffff8111156112c6576112c5611143565b5b6112d284828501611200565b60608301525060806112e684828501611044565b60808301525092915050565b60006020828403121561130857611307610dd1565b5b600082013567ffffffffffffffff81111561132657611325610dd6565b5b6113328482850161122e565b91505092915050565b600080fd5b600080fd5b60008083601f84011261135b5761135a611174565b5b8235905067ffffffffffffffff8111156113785761137761133b565b5b60208301915083602082028301111561139457611393611340565b5b9250929050565b600080602083850312156113b2576113b1610dd1565b5b600083013567ffffffffffffffff8111156113d0576113cf610dd6565b5b6113dc85828601611345565b92509250509250929050565b600080604083850312156113ff576113fe610dd1565b5b600061140d8582860161115f565b925050602061141e85828601610dfc565b9150509250929050565b60008115159050919050565b61143d81611428565b82525050565b60006020820190506114586000830184611434565b92915050565b60006020828403121561147457611473610dd1565b5b60006114828482850161115f565b91505092915050565b61149481610ddb565b82525050565b60006020820190506114af600083018461148b565b92915050565b7f4e487b7100000000000000000000000000000000000000000000000000000000600052602260045260246000fd5b600060028204905060018216806114fc57607f821691505b60208210810361150f5761150e6114b5565b5b50919050565b600082825260208201905092915050565b7f416374696f6e5265676973746f72793a206964206973206e6f74206578697374600082015250565b600061155c602083611515565b915061156782611526565b602082019050919050565b6000602082019050818103600083015261158b8161154f565b9050919050565b7f416374696f6e5265676973746f72793a20696e76616c696420696e7075747300600082015250565b60006115c8601f83611515565b91506115d382611592565b602082019050919050565b600060208201905081810360008301526115f7816115bb565b9050919050565b60008151905061160d81611148565b92915050565b60006116266116218461117e565b611128565b90508281526020810184848401111561164257611641611179565b5b61164d848285610eaa565b509392505050565b600082601f83011261166a57611669611174565b5b815161167a848260208601611613565b91505092915050565b6003811061169057600080fd5b50565b6000815190506116a281611683565b92915050565b6000608082840312156116be576116bd6110c3565b5b6116c86080611128565b905060006116d8848285016115fe565b600083015250602082015167ffffffffffffffff8111156116fc576116fb611143565b5b61170884828501611655565b602083015250604082015167ffffffffffffffff81111561172c5761172b611143565b5b61173884828501611655565b604083015250606061174c84828501611693565b60608301525092915050565b60006020828403121561176e5761176d610dd1565b5b600082015167ffffffffffffffff81111561178c5761178b610dd6565b5b611798848285016116a8565b91505092915050565b7f416374696f6e5265676973746f72793a207374616e64617264206973206e6f7460008201527f2065786973740000000000000000000000000000000000000000000000000000602082015250565b60006117fd602683611515565b9150611808826117a1565b604082019050919050565b6000602082019050818103600083015261182c816117f0565b9050919050565b7f416374696f6e5265676973746f72793a20696420697320616c7265616479207460008201527f616b656e2e000000000000000000000000000000000000000000000000000000602082015250565b600061188f602583611515565b915061189a82611833565b604082019050919050565b600060208201905081810360008301526118be81611882565b9050919050565b60008190508160005260206000209050919050565b60006020601f8301049050919050565b600082821b905092915050565b6000600883026119277fffffffffffffffffffffffffffffffffffffffffffffffffffffffffffffffff826118ea565b61193186836118ea565b95508019841693508086168417925050509392505050565b6000819050919050565b600061196e61196961196484610ddb565b611949565b610ddb565b9050919050565b6000819050919050565b61198883611953565b61199c61199482611975565b8484546118f7565b825550505050565b600090565b6119b16119a4565b6119bc81848461197f565b505050565b5b818110156119e0576119d56000826119a9565b6001810190506119c2565b5050565b601f821115611a25576119f6816118c5565b6119ff846118da565b81016020851015611a0e578190505b611a22611a1a856118da565b8301826119c1565b50505b505050565b600082821c905092915050565b6000611a4860001984600802611a2a565b1980831691505092915050565b6000611a618383611a37565b9150826002028217905092915050565b611a7a82610e8e565b67ffffffffffffffff811115611a9357611a926110c8565b5b611a9d82546114e4565b611aa88282856119e4565b600060209050601f831160018114611adb5760008415611ac9578287015190505b611ad38582611a55565b865550611b3b565b601f198416611ae9866118c5565b60005b82811015611b1157848901518255600182019150602085019450602081019050611aec565b86831015611b2e5784890151611b2a601f891682611a37565b8355505b6001600288020188555050505b505050505050565b7f4e487b7100000000000000000000000000000000000000000000000000000000600052603260045260246000fd5b7f4e487b7100000000000000000000000000000000000000000000000000000000600052601160045260246000fd5b6000611bac82610ddb565b91507fffffffffffffffffffffffffffffffffffffffffffffffffffffffffffffffff8203611bde57611bdd611b72565b5b600182019050919050565b600082825260208201905092915050565b600080fd5b82818337505050565b6000611c148385611be9565b93507f07ffffffffffffffffffffffffffffffffffffffffffffffffffffffffffffff831115611c4757611c46611bfa565b5b602083029250611c58838584611bff565b82840190509392505050565b60006020820190508181036000830152611c7f818486611c08565b90509392505050565b7f4f776e61626c653a206e6577206f776e657220697320746865207a65726f206160008201527f6464726573730000000000000000000000000000000000000000000000000000602082015250565b6000611ce4602683611515565b9150611cef82611c88565b604082019050919050565b60006020820190508181036000830152611d1381611cd7565b9050919050565b7f4f776e61626c653a2063616c6c6572206973206e6f7420746865206f776e6572600082015250565b6000611d50602083611515565b9150611d5b82611d1a565b602082019050919050565b60006020820190508181036000830152611d7f81611d43565b905091905056fea26469706673582212206c9a2ba19283138a2ffed27397eed51eeef3dd1879a1e1bcdf20dd80072267d564736f6c63430008110033",
  "linkReferences": {},
  "deployedLinkReferences": {}
}